:100000000C942A000C943F000C943F000C943F0089
:100010000C943F000C943F000C943F000C943F0064
:100020000C943F000C943F000C943F000C943F0054
:100030000C943F000C943F000C943F000C943F0044
:100040000C943F000C943F000C943F000C943F0034
:100050000C943F0011241FBECFE5D8E0DEBFCDBF1A
:1000600012E0A0E6B0E0E6EAF3E102C005900D92EE
:10007000A430B107D9F70E9475030C94D1090C94F0
:100080000000DF93CF9300D000D0CDB7DEB7A898A3
:1000900095B3807F9F70892B85BBA99A1A8219829C
:1000A00012C01C821B8205C08B819C8101969C839F
:1000B0008B838B819C81885E9340B0F389819A8188
:1000C00001969A83898389819A81029750F3A9982E
:1000D0000F900F900F900F90CF91DF9108951F9385
:1000E000182F0E944100812F8295807F0E9441003D
:1000F0001F910895DF93CF9300D000D0CDB7DEB726
:100100008FEF84BB1A82198212C01C821B8205C029
:100110008B819C8101969C838B838B819C81885EE3
:100120009340B0F389819A8101969A83898389816A
:100130009A810F9750F380E30E9441001C821B823A
:1001400012C01A82198205C089819A8101969A8308
:10015000898389819A81885E9340B0F38B819C81E9
:1001600001969C838B838B819C810F9750F380E356
:100170000E9441001A82198212C01C821B8205C093
:100180008B819C8101969C838B838B819C81885E73
:100190009340B0F389819A8101969A8389838981FA
:1001A0009A810F9750F380E30E9441001C821B82CA
:1001B00012C01A82198205C089819A8101969A8398
:1001C000898389819A81885E9340B0F38B819C8179
:1001D00001969C838B838B819C810F9750F380E2E7
:1001E0000E9441001A82198212C01C821B8205C023
:1001F0008B819C8101969C838B838B819C81885E03
:100200009340B0F389819A8101969A838983898189
:100210009A810F9750F388E20E946F0080E10E945C
:100220006F008CE00E946F0084E00E946F0081E00C
:100230000E946F000F900F900F900F90CF91DF9161
:100240000895DF93CF9300D000D0CDB7DEB7A89A42
:1002500095B3807F9F70892B85BBA99A1A821982DA
:1002600012C01C821B8205C08B819C8101969C83DD
:100270008B838B819C81885E9340B0F389819A81C6
:1002800001969A83898389819A81029750F3A9986C
:100290000F900F900F900F90CF91DF9108951F93C3
:1002A000182F0E942101812F8295807F0E942101B9
:1002B0001F9108951F93CF93DF93EC0110E00DC0C1
:1002C0001F5F0E944F01103111F480EC03C0103207
:1002D00019F480E80E946F0021968881882381F7B5
:1002E000DF91CF911F910895DF93CF9300D000D07D
:1002F000CDB7DEB79C011A82198212C01C821B8204
:1003000005C08B819C8101969C838B838B819C8112
:10031000885E9340B0F389819A8101969A8389839C
:1003200089819A818217930748F30F900F900F905D
:100330000F90CF91DF9108955D9BFECF8CB908950A
:10034000FC0104C05D9BFECF8CB93196808188236F
:10035000C9F708955F9BFECF8CB1089520E030E08F
:1003600007C02F5F3F4F2817390714F08FEF08950C
:100370005F9BF7CF8CB1089520E030E05F9BFECF0C
:100380009CB1F901981721F090832F5F3F4FF6CF72
:10039000108220E030E0C901089510BC87E689B9D9
:1003A00088E98AB986E880BD0895AF92BF92CF925E
:1003B000DF92EF92FF920F931F9320E030E0482FDF
:1003C00050E0CA01022E02C0959587950A94E2F783
:1003D00080FD02C0C29801C0C29AC19AC1982F5F25
:1003E0003F4F2830310569F7C09AC09860913501B8
:1003F0007091360180E090E00E9481085B016C0101
:1004000020E030E04AE755E40E940F097B018C01AF
:1004100020E030E040E85FE30E94510888231CF4AC
:1004200061E070E024C0C801B70120E03FEF4FE772
:1004300057E40E940B091816B4F4C601B50120E078
:1004400030E040E251E40E940F090E94550880E923
:1004500091E005C0FC013197F1F7615070406115E2
:100460007105C1F707C0C801B7010E945508CB014B
:100470000197F1F71F910F91FF90EF90DF90CF90D0
:10048000BF90AF9008950F931F93CF93DF9325E014
:10049000829F80011124095C1E4F90E00196EC01BF
:1004A000CC0FDD1FCC0FDD1FC80FD91FC95CDE4F7D
:1004B000F80181918F010E94D5010C171D07C1F72A
:1004C0008FEF0E94D501DF91CF911F910F91089579
:1004D0008EEF0E94D5018FEF0E94D50108958FEF16
:1004E0000E94D5018FEF0E94D5018FEF0E94D501A8
:1004F00008950F931F93CF93DF938C01C0E0D0E05A
:10050000F801EC0FFD1FE081E13611F0E13411F448
:1005100080E005C0E23611F0E23421F481E00E946F
:100520004302D5C0E33611F0E33411F482E0F7CF93
:10053000E43611F0E43411F483E0F1CFE53611F044
:10054000E53411F484E0EBCFE63611F0E63411F433
:1005500085E0E5CFE73611F0E73411F486E0DFCF30
:10056000E83611F0E83411F487E0D9CFE93611F01C
:10057000E93411F488E0D3CFEA3611F0EA3411F40B
:1005800089E0CDCFEB3611F0EB3411F48AE0C7CF20
:10059000EC3619F0ED3619F404C08BE0C0CFED3421
:1005A00011F48CE0BCCFEE3611F0EE3411F48DE096
:1005B000B6CFEF3611F0EF3411F48EE0B0CFE03764
:1005C00011F0E03511F48FE0AACFE13711F0E135F9
:1005D00011F480E1A4CFE23711F0E23511F481E1AA
:1005E0009ECFE33711F0E33511F482E198CFE43781
:1005F00011F0E43511F483E192CFE53711F0E535E0
:1006000011F484E18CCFE63711F0E63511F485E181
:1006100086CFE73711F0E73511F486E180CFE83770
:1006200011F0E83511F487E17ACFE93711F0E935B7
:1006300011F488E174CFEA3711F0EA3511F489E159
:100640006ECFE03319F0E13329F402C08AE167CFBD
:100650008BE165CFE23311F48CE161CFE33311F428
:100660008DE15DCFE43311F48EE159CFE53311F420
:100670008FE155CFE63311F480E251CFE73311F427
:1006800081E24DCFE83311F482E249CFE93311F42E
:1006900083E245CFEA3211F484E241CFEF3511F421
:1006A00085E23DCFEA3311F486E239CFEC3211F422
:1006B00087E235CFE13211F488E231CFE03219F42C
:1006C0000E946F0204C0EE3239F40E946802219643
:1006D000C135D10509F014CF0E946F020E946F024C
:1006E000DF91CF911F910F9108952F923F924F92DA
:1006F0005F926F927F928F929F92AF92BF92CF92B2
:10070000DF92EF92FF920F931F93DF93CF93CDB7BA
:10071000DEB7C355D0400FB6F894DEBF0FBECDBFD5
:100720008F9A9798B89AB99ABA9ABB9A0E947A0007
:1007300010BC87E689B988E98AB986E880BD80E679
:1007400090E00E945A01E1E7F0E004C05D9BFECF1B
:100750008CB9319680818823C9F7E6E7F0E004C0C0
:100760005D9BFECF8CB9319680818823C9F701E06B
:1007700010E0BCE0EB2EF12CEC0EFD1EA2E8AA2E40
:10078000A0E0BA2EF0E9CF2EF1E0DF2E00D000D0AD
:1007900000D0EDB7FEB73196ADB7BEB71296FC925A
:1007A000EE921197B382A282158304830E94B00552
:1007B000F7018DB79EB706960FB6F8949EBF0FBE91
:1007C0008DBF04C05D9BFECF8CB93196808188239C
:1007D000C9F788EE93E0F6013197F1F70197D9F761
:1007E0000F5F1F4F0A31110589F6ECE04E2E512C98
:1007F0004C0E5D1E6E010894C11CD11CDE011B96BF
:100800006496BFAFAEAF64977AE2A72EB12CAC0E60
:10081000BD1E68E2862E912C8A0C9B1C50E9E52EA9
:1008200051E0F52E4AE1642E712C6C0E7D1E34E2EF
:10083000232E31E0332E00D000D000D0EDB7FEB72C
:100840003196ADB7BEB712965C924E9211978FE873
:1008500090E09383828381E090E0958384830E947B
:10086000B005F201ADB7BEB716960FB6F894BEBF8D
:100870000FBEADBF04C05D9BFECF8CB931968081A9
:100880008823C9F720E030E080E090E006C00196C0
:10089000B3E188389B0709F40BC15F9BF8CF8CB19B
:1008A0008B3209F005C180E090E006C0019643E17B
:1008B0008838940709F4FCC05F9BF8CF8CB189336A
:1008C00009F0F6C080E090E006C00196A3E1883808
:1008D0009A0709F4EDC05F9BF8CF8CB1813309F022
:1008E000E7C007C00196B3E188389B0729F48FEF72
:1008F00006C0F60180E090E05F9BF4CF8CB181935D
:1009000064968EAD9FAD6497E817F90799F71B863B
:10091000C6016CE970E00E94A7050097B1F0C6011E
:1009200068EA70E00E94A705009779F0C60164EBC1
:1009300070E00E94A705009741F0C60160EC70E0EE
:100940000E94A705009709F092C05F9BFECF8CB173
:100950008B32D9F780E090E005C00196A3E188389A
:100960009A0719F05F9BF9CF8CB180E090E005C049
:100970000196B3E188389B0719F05F9BF9CF8CB1E2
:1009800080E090E005C0019623E188389207E9F203
:100990005F9BF9CF8CB18232C1F680E090E005C058
:1009A000019643E18838940719F05F9BF9CF8CB129
:1009B00080E090E005C00196A3E188389A0759F0DD
:1009C0005F9BF9CF8CB107C00196B3E188389B07D4
:1009D00029F48FEF06C0F50180E090E05F9BF4CF33
:1009E0008CB18193E815F905B9F7979A80E197E200
:1009F000F7013197F1F70197D9F7979880E197E2DE
:100A0000F7013197F1F70197D9F7979A80E197E2CB
:100A1000F7013197F1F70197D9F7979880E197E2BD
:100A2000F7013197F1F70197D9F7979A80E197E2AB
:100A3000F7013197F1F70197D9F7979880E197E29D
:100A4000F7013197F1F70197D9F7ECECF0E004C02A
:100A50005D9BFECF8CB9319680818823C9F780E1F8
:100A600097E2F7013197F1F70197D9F73CC0979AD0
:100A700080E80E946F00C6010E945A0180EC0E942B
:100A80006F0088ED90E00E945A01ECECF0E004C0A9
:100A90005D9BFECF8CB9319680818823C9F780E5B4
:100AA00093ECF7013197F1F70197D9F7979806C0C2
:100AB0002F5F3F4F2536310509F0E6CE80E80E94D2
:100AC0006F0080E690E00E945A0180EC0E946F0067
:100AD00085EE90E00E945A0186EF90E068E270E0B7
:100AE0000E947902A8CE00E010E080E80E946F002A
:100AF00083E191E00E945A010F5F1F4F00D000D0A8
:100B000000D0EDB7FEB73196ADB7BEB712967C9266
:100B10006E92119733822282158304830E94B0055E
:100B20008DB79EB706960FB6F8949EBF0FBE8DBFC9
:100B300080EC0E946F00C3010E945A01C50168E267
:100B400070E00E9479020A30110579F674CEFB013B
:100B5000DC018D91019080190110D9F3990B089552
:100B6000AEE0B0E0E6EBF5E00C94A8090D891E8933
:100B700086E08C831A8309838FEF9FE79E838D83A2
:100B80009E01275E3F4FCE0101966F89788DA901A6
:100B90000E94D4052F813885020F131FF80110829F
:100BA0002E96E4E00C94C409ABE0B0E0EAEDF5E089
:100BB0000C949A093C012B015A01FC011782168200
:100BC000838181FD03C06FEF7FEFC6C19AE0892E5C
:100BD0001E010894211C311CF3012381F20123FD25
:100BE000859123FF81912F01882309F4B2C18532B9
:100BF00039F423FD859123FF81912F01853229F45A
:100C000090E0B3010E94C707E7CF982FFF24EE249E
:100C10009924FFE1FF15D0F09B3269F09C3228F453
:100C2000903259F0933291F40EC09D3249F09033D6
:100C300069F441E024C052E0F52A84E0F82A28C093
:100C400098E0F92A25C0E0E1FE2A22C0F7FC29C07D
:100C5000892F80538A3070F4F6FE05C0989C902C42
:100C60001124980E15C0E89CE02C1124E80EF0E247
:100C7000FF2A0EC09E3229F4F6FC6BC140E4F42A30
:100C800007C09C3619F450E8F52A02C0983649F49A
:100C9000F20123FD959123FF91912F01992309F0F2
:100CA000B8CF892F8554833018F08052833038F4C0
:100CB00044E050E0A40EB51E5FE359830FC09336A5
:100CC00031F0933779F0933509F056C020C0F50123
:100CD0008081898342E050E0A40EB51E610101E0ED
:100CE00010E012C0F501C080D180F6FC03C06FEFA8
:100CF0007FEF02C0692D70E042E050E0A40EB51E07
:100D0000C6010E94BC078C015FE7F52214C0F50103
:100D1000C080D180F6FC03C06FEF7FEF02C0692D69
:100D200070E042E050E0A40EB51EC6010E94B1077B
:100D30008C0150E8F52AF3FE07C01AC080E290E06B
:100D4000B3010E94C707EA948E2D90E00817190797
:100D5000A8F30EC0F601F7FC8591F7FE81916F01B3
:100D600090E0B3010E94C707E110EA9401501040DF
:100D70000115110579F7EAC0943611F0993669F535
:100D8000F7FE08C0F501208131814281538184E062
:100D900090E00AC0F501808191819C01442737FDD4
:100DA0004095542F82E090E0A80EB91E9FE6F922EC
:100DB00057FF09C050954095309521953F4F4F4FB3
:100DC0005F4FE0E8FE2ACA01B901A1012AE030E044
:100DD0000E94F307D82ED21840C0953729F41F2D52
:100DE0001F7E2AE030E01DC01F2D197F9F3661F065
:100DF000903720F4983509F0ACC00FC0903739F027
:100E0000983709F0A6C004C028E030E00AC010619D
:100E100014FD146020E130E004C014FD166020E1F0
:100E200032E017FF08C0F5016081718182819381F2
:100E300044E050E008C0F50180819181BC0180E070
:100E400090E042E050E0A40EB51EA1010E94F3071D
:100E5000D82ED2188FE7F82EF122F6FE0BC05EEFE7
:100E6000F522D91438F4F4FE07C0F2FC05C08FEE69
:100E7000F82202C01D2D01C0192DF4FE0DC0FE0187
:100E8000ED0DF11D8081803319F499EEF92208C02F
:100E90001F5FF2FE05C003C08F2D867809F01F5F2B
:100EA0000F2DF3FC14C0F0FE0FC01E1510F09D2C8A
:100EB0000BC09D2C9E0C911A1E2D06C080E290E066
:100EC000B3010E94C7071F5F1E15C0F304C01E15A3
:100ED00010F4E11A01C0EE2404FF0FC080E390E09B
:100EE000B3010E94C70702FF1DC001FD03C088E7D0
:100EF00090E00EC088E590E00BC0802F867891F0DE
:100F000001FF02C08BE201C080E2F7FC8DE290E0BD
:100F1000B3010E94C70706C080E390E0B3010E94BE
:100F2000C7079A94D914C0F3DA94F101ED0DF11DBD
:100F3000808190E0B3010E94C707DD20A9F706C0B9
:100F400080E290E0B3010E94C707EA94EE20C1F767
:100F500043CEF30166817781CB012B96E2E10C94BD
:100F6000B609FC010590615070400110D8F78095DA
:100F700090958E0F9F1F0895FC0161507040019065
:100F80000110D8F7809590958E0F9F1F08950F93AD
:100F90001F93CF93DF938C01EB018B8181FF1BC0EB
:100FA00082FF0DC02E813F818C819D8128173907DA
:100FB00064F4E881F9810193F983E88306C0E88548
:100FC000F985802F0995892B31F48E819F810196B7
:100FD0009F838E8302C00FEF1FEFC801DF91CF9177
:100FE0001F910F910895FA01AA27283051F120315D
:100FF00081F1E8946F936E7F6E5F7F4F8F4F9F4FAD
:10100000AF4FB1E03ED0B4E03CD0670F781F891FEE
:101010009A1FA11D680F791F8A1F911DA11D6A0FBC
:10102000711D811D911DA11D20D009F468943F916F
:101030002AE0269F11243019305D3193DEF6CF016E
:101040000895462F4770405D4193B3E00FD0C9F734
:10105000F6CF462F4F70405D4A3318F0495D31FDA1
:101060004052419302D0A9F7EACFB4E0A6959795F4
:10107000879577956795BA95C9F7009761057105CA
:1010800008959B01AC010A2E069457954795379514
:101090002795BA95C9F7620F731F841F951FA01D6E
:1010A00008956CD008F481E0089594D088F09F579B
:1010B00090F0B92F9927B751A0F0D1F0660F771FA4
:1010C000881F991F1AF0BA95C9F712C0B13081F084
:1010D0009BD0B1E0089598C0672F782F8827B85F1C
:1010E00039F0B93FCCF3869577956795B395D9F7E5
:1010F0003EF490958095709561957F4F8F4F9F4FEF
:101100000895E89409C097FB3EF4909580957095FA
:1011100061957F4F8F4F9F4F9923A9F0F92F96E943
:10112000BB279395F695879577956795B795F111B8
:10113000F8CFFAF4BB0F11F460FF1BC06F5F7F4F55
:101140008F4F9F4F16C0882311F096E911C0772367
:1011500021F09EE8872F762F05C0662371F096E870
:10116000862F70E060E02AF09A95660F771F881F3F
:10117000DAF7880F9695879597F90895990F0008E3
:10118000550FAA0BE0E8FEEF16161706E807F90759
:10119000C0F012161306E407F50798F0621B730BF4
:1011A000840B950B39F40A2661F0232B242B252B75
:1011B00021F408950A2609F4A140A6958FEF811D18
:1011C000811D089557FD9058440F551F59F05F3FFA
:1011D00071F04795880F97FB991F61F09F3F79F059
:1011E00087950895121613061406551FF2CF4695DB
:1011F000F1DF08C0161617061806991FF1CF86955D
:101200007105610508940895E894BB276627772740
:10121000CB0197F90895B2DF08F48FEF08950BD052
:1012200078C069D028F06ED018F0952309F05AC024
:101230005FC01124EACFC6DFA0F3959FD1F3950FCD
:1012400050E0551F629FF001729FBB27F00DB11D4A
:10125000639FAA27F00DB11DAA1F649F6627B00DDA
:10126000A11D661F829F2227B00DA11D621F739FC3
:10127000B00DA11D621F839FA00D611D221F749FD1
:101280003327A00D611D231F849F600D211D822F18
:10129000762F6A2F11249F5750408AF0E1F088235F
:1012A0004AF0EE0FFF1FBB1F661F771F881F91506C
:1012B0005040A9F79E3F510570F014C0A6CF5F3F84
:1012C000ECF3983EDCF3869577956795B795F7959F
:1012D000E7959F5FC1F7FE2B880F911D9695879527
:1012E00097F9089597F99F6780E870E060E00895A6
:1012F0009FEF80EC089500240A941616170618062E
:101300000906089500240A94121613061406050609
:101310000895092E0394000C11F4882352F0BB0F9A
:1013200040F4BF2B11F460FF04C06F5F7F4F8F4FFD
:101330009F4F08952F923F924F925F926F927F92AC
:101340008F929F92AF92BF92CF92DF92EF92FF92D5
:101350000F931F93CF93DF93CDB7DEB7CA1BDB0B81
:101360000FB6F894DEBF0FBECDBF09942A88398826
:1013700048885F846E847D848C849B84AA84B9842D
:10138000C884DF80EE80FD800C811B81AA81B98139
:10139000CE0FD11D0FB6F894DEBF0FBECDBFED014D
:0613A0000895F894FFCF50
:1013A60047736D204E6F7469636520426F61726486
:1013B6000041540D0A0041542B434D47463D310D23
:1013C6000A0041542B434D47443D25640D0A004114
:1013D600542B434D47523D25640D0A0038393736A4
:1013E600333833373232000038323735323137321C
:1013F6003938000039383535363833353538000058
:1014060039383930393533353736000041542B43B6
:101416004D47443D310D0A00556E72656769737418
:1014260065726564002057616974696E6720666F2E
:101436007220534D530057656C636F6D6520746F52
:101446002045585443204558414D494E4154494F33
:101456004E00004D6573736167652052656365696B
:1014660076656400446973706C617920636F756E8C
:10147600743A2564003200605737576000363636B6
:1014860049413E3E3E5D003E3E3E41003636363EDA
:10149600003737373F413E36363100777777003EA3
:1014A6003E003E3E3D3E003F3F00776B5D3E00FE08
:1014B600FEFEFE005FE75F00006F777B00413E3E69
:1014C6003E4100373737CF413E3A3C3F0037333550
:1014D600CE4E363636393F3F003F3F017E7E7E0197
:1014E60003FDFEFD03007D737D001C6B776B1C0FF7
:1014F600F7F8F70F3C3A362E1E003E3E3E006E5E73
:10150600007E7E4E3C3A364E3C3E362A1C77675766
:101516000077063636363100363636303E3D3B37B6
:101526000F003636360006363636005563416355AB
:10153600FFF7F7F7FF7F49497F7F7F7F7F72717FD4
:041546007F027F7F22
:00000001FF
